{
  "contractName": "EncryptedFileFactory",
  "abi": [
    {
      "constant": false,
      "inputs": [],
      "name": "renounceOwnership",
      "outputs": [],
      "payable": false,
      "stateMutability": "nonpayable",
      "type": "function"
    },
    {
      "constant": true,
      "inputs": [],
      "name": "owner",
      "outputs": [
        {
          "name": "",
          "type": "address"
        }
      ],
      "payable": false,
      "stateMutability": "view",
      "type": "function"
    },
    {
      "constant": true,
      "inputs": [
        {
          "name": "",
          "type": "uint256"
        }
      ],
      "name": "encryptedFiles",
      "outputs": [
        {
          "components": [
            {
              "name": "digest",
              "type": "bytes32"
            },
            {
              "name": "hashFunction",
              "type": "uint8"
            },
            {
              "name": "size",
              "type": "uint8"
            }
          ],
          "name": "filePath",
          "type": "tuple"
        },
        {
          "components": [
            {
              "name": "digest",
              "type": "bytes32"
            },
            {
              "name": "hashFunction",
              "type": "uint8"
            },
            {
              "name": "size",
              "type": "uint8"
            }
          ],
          "name": "dataHash",
          "type": "tuple"
        },
        {
          "name": "encriptionMethod",
          "type": "uint256"
        }
      ],
      "payable": false,
      "stateMutability": "view",
      "type": "function"
    },
    {
      "constant": false,
      "inputs": [
        {
          "name": "_newOwner",
          "type": "address"
        }
      ],
      "name": "transferOwnership",
      "outputs": [],
      "payable": false,
      "stateMutability": "nonpayable",
      "type": "function"
    },
    {
      "constant": true,
      "inputs": [
        {
          "name": "",
          "type": "uint256"
        }
      ],
      "name": "EncryptionMethods",
      "outputs": [
        {
          "name": "",
          "type": "string"
        }
      ],
      "payable": false,
      "stateMutability": "view",
      "type": "function"
    },
    {
      "anonymous": false,
      "inputs": [
        {
          "indexed": true,
          "name": "by",
          "type": "address"
        },
        {
          "indexed": true,
          "name": "encryptedFile",
          "type": "uint256"
        }
      ],
      "name": "Created",
      "type": "event"
    },
    {
      "anonymous": false,
      "inputs": [
        {
          "indexed": true,
          "name": "by",
          "type": "address"
        },
        {
          "indexed": true,
          "name": "to",
          "type": "address"
        },
        {
          "indexed": true,
          "name": "encryptedFile",
          "type": "uint256"
        }
      ],
      "name": "GivenAccess",
      "type": "event"
    },
    {
      "anonymous": false,
      "inputs": [
        {
          "indexed": true,
          "name": "previousOwner",
          "type": "address"
        }
      ],
      "name": "OwnershipRenounced",
      "type": "event"
    },
    {
      "anonymous": false,
      "inputs": [
        {
          "indexed": true,
          "name": "previousOwner",
          "type": "address"
        },
        {
          "indexed": true,
          "name": "newOwner",
          "type": "address"
        }
      ],
      "name": "OwnershipTransferred",
      "type": "event"
    },
    {
      "constant": false,
      "inputs": [
        {
          "name": "_by",
          "type": "address"
        },
        {
          "name": "_keysOwners",
          "type": "address[]"
        },
        {
          "name": "_keys",
          "type": "bytes32[4][]"
        },
        {
          "name": "_filePath_digest",
          "type": "bytes32"
        },
        {
          "name": "_filePath_hashFunction",
          "type": "uint8"
        },
        {
          "name": "_filePath_size",
          "type": "uint8"
        },
        {
          "name": "_dataHash_digest",
          "type": "bytes32"
        },
        {
          "name": "_dataHash_hashFunction",
          "type": "uint8"
        },
        {
          "name": "_dataHash_size",
          "type": "uint8"
        },
        {
          "name": "_encriptionMethod",
          "type": "uint256"
        }
      ],
      "name": "create",
      "outputs": [
        {
          "name": "index",
          "type": "uint256"
        }
      ],
      "payable": false,
      "stateMutability": "nonpayable",
      "type": "function"
    },
    {
      "constant": false,
      "inputs": [
        {
          "name": "_index",
          "type": "uint256"
        },
        {
          "name": "_to",
          "type": "address"
        },
        {
          "name": "_by",
          "type": "address"
        },
        {
          "name": "_key",
          "type": "bytes32[4]"
        }
      ],
      "name": "giveAccess",
      "outputs": [],
      "payable": false,
      "stateMutability": "nonpayable",
      "type": "function"
    }
  ],
  "bytecode": "0x60806040526020604051908101604052806040805190810160405280600381526020017f414553000000000000000000000000000000000000000000000000000000000081525081525060019060016200005b929190620000a2565b50336000806101000a81548173ffffffffffffffffffffffffffffffffffffffff021916908373ffffffffffffffffffffffffffffffffffffffff16021790555062000235565b828054828255906000526020600020908101928215620000f6579160200282015b82811115620000f5578251829080519060200190620000e492919062000109565b5091602001919060010190620000c3565b5b50905062000105919062000190565b5090565b828054600181600116156101000203166002900490600052602060002090601f016020900481019282601f106200014c57805160ff19168380011785556200017d565b828001600101855582156200017d579182015b828111156200017c5782518255916020019190600101906200015f565b5b5090506200018c9190620001c1565b5090565b620001be91905b80821115620001ba5760008181620001b09190620001e9565b5060010162000197565b5090565b90565b620001e691905b80821115620001e2576000816000905550600101620001c8565b5090565b90565b50805460018160011615610100020316600290046000825580601f1062000211575062000232565b601f016020900490600052602060002090810190620002319190620001c1565b5b50565b610df880620002456000396000f300608060405260043610610083576000357c0100000000000000000000000000000000000000000000000000000000900463ffffffff168063715018a6146100885780638173398a1461009f5780638da5cb5b14610212578063d6aa9e0314610269578063df594380146102b8578063f2fde38b14610354578063fc3bf40d14610397575b600080fd5b34801561009457600080fd5b5061009d61043d565b005b3480156100ab57600080fd5b506101fc600480360381019080803573ffffffffffffffffffffffffffffffffffffffff1690602001909291908035906020019082018035906020019080806020026020016040519081016040528093929190818152602001838360200280828437820191505050505050919291929080359060200190820180359060200190808060200260200160405190810160405280939291908181526020016000905b8282101561019057848483905060800201600480602002604051908101604052809291908260046020028082843782019150505050508152602001906001019061014b565b505050505091929192908035600019169060200190929190803560ff169060200190929190803560ff1690602001909291908035600019169060200190929190803560ff169060200190929190803560ff1690602001909291908035906020019092919050505061053f565b6040518082815260200191505060405180910390f35b34801561021e57600080fd5b50610227610910565b604051808273ffffffffffffffffffffffffffffffffffffffff1673ffffffffffffffffffffffffffffffffffffffff16815260200191505060405180910390f35b34801561027557600080fd5b5061029460048036038101908080359060200190929190505050610935565b60405180848152602001838152602001828152602001935050505060405180910390f35b3480156102c457600080fd5b5061035260048036038101908080359060200190929190803573ffffffffffffffffffffffffffffffffffffffff169060200190929190803573ffffffffffffffffffffffffffffffffffffffff1690602001909291908060800190600480602002604051908101604052809291908260046020028082843782019150505050509192919290505050610a1c565b005b34801561036057600080fd5b50610395600480360381019080803573ffffffffffffffffffffffffffffffffffffffff169060200190929190505050610b45565b005b3480156103a357600080fd5b506103c260048036038101908080359060200190929190505050610bac565b6040518080602001828103825283818151815260200191508051906020019080838360005b838110156104025780820151818401526020810190506103e7565b50505050905090810190601f16801561042f5780820380516001836020036101000a031916815260200191505b509250505060405180910390f35b6000809054906101000a900473ffffffffffffffffffffffffffffffffffffffff1673ffffffffffffffffffffffffffffffffffffffff163373ffffffffffffffffffffffffffffffffffffffff1614151561049857600080fd5b6000809054906101000a900473ffffffffffffffffffffffffffffffffffffffff1673ffffffffffffffffffffffffffffffffffffffff167ff8df31144d9c2f0f6b59d69b8b98abd5459d07f2742c4df920b25aae33c6482060405160405180910390a260008060006101000a81548173ffffffffffffffffffffffffffffffffffffffff021916908373ffffffffffffffffffffffffffffffffffffffff160217905550565b60008060008060009054906101000a900473ffffffffffffffffffffffffffffffffffffffff1673ffffffffffffffffffffffffffffffffffffffff163373ffffffffffffffffffffffffffffffffffffffff1614151561059f57600080fd5b60026060604051908101604052806060604051908101604052808e6000191681526020018d60ff1681526020018c60ff1681525081526020016060604051908101604052808b6000191681526020018a60ff1681526020018960ff16815250815260200186815250908060018154018082558091505090600182039060005260206000209060060201600090919290919091506000820151816000016000820151816000019060001916905560208201518160010160006101000a81548160ff021916908360ff16021790555060408201518160010160016101000a81548160ff021916908360ff16021790555050506020820151816002016000820151816000019060001916905560208201518160010160006101000a81548160ff021916908360ff16021790555060408201518160010160016101000a81548160ff021916908360ff1602179055505050604082015181600401555050925082806001900393505060028181548110151561071257fe5b90600052602060002090600602019150600090505b8b51811015610900576080604051908101604052808c600081518110151561074b57fe5b906020019060200201518360048110151561076257fe5b6020020151600019166000191681526020018c600181518110151561078357fe5b906020019060200201518360048110151561079a57fe5b6020020151600019166000191681526020018c60028151811015156107bb57fe5b90602001906020020151836004811015156107d257fe5b6020020151600019166000191681526020018c60038151811015156107f357fe5b906020019060200201518360048110151561080a57fe5b602002015160001916600019168152508260050160008e8481518110151561082e57fe5b9060200190602002015173ffffffffffffffffffffffffffffffffffffffff1673ffffffffffffffffffffffffffffffffffffffff168152602001908152602001600020906004610880929190610d61565b50828c8281518110151561089057fe5b9060200190602002015173ffffffffffffffffffffffffffffffffffffffff168e73ffffffffffffffffffffffffffffffffffffffff167fd9746856d3dbc73c60e9258736fb51c1a4c41e817fcadab7110d3f0b4730ea6960405160405180910390a48080600101915050610727565b50509a9950505050505050505050565b6000809054906101000a900473ffffffffffffffffffffffffffffffffffffffff1681565b60028181548110151561094457fe5b906000526020600020906006020160009150905080600001606060405190810160405290816000820154600019166000191681526020016001820160009054906101000a900460ff1660ff1660ff1681526020016001820160019054906101000a900460ff1660ff1660ff16815250509080600201606060405190810160405290816000820154600019166000191681526020016001820160009054906101000a900460ff1660ff1660ff1681526020016001820160019054906101000a900460ff1660ff1660ff1681525050908060040154905083565b6000809054906101000a900473ffffffffffffffffffffffffffffffffffffffff1673ffffffffffffffffffffffffffffffffffffffff163373ffffffffffffffffffffffffffffffffffffffff16141515610a7757600080fd5b80600285815481101515610a8757fe5b906000526020600020906006020160050160008573ffffffffffffffffffffffffffffffffffffffff1673ffffffffffffffffffffffffffffffffffffffff168152602001908152602001600020906004610ae3929190610d61565b50838373ffffffffffffffffffffffffffffffffffffffff168373ffffffffffffffffffffffffffffffffffffffff167fd9746856d3dbc73c60e9258736fb51c1a4c41e817fcadab7110d3f0b4730ea6960405160405180910390a450505050565b6000809054906101000a900473ffffffffffffffffffffffffffffffffffffffff1673ffffffffffffffffffffffffffffffffffffffff163373ffffffffffffffffffffffffffffffffffffffff16141515610ba057600080fd5b610ba981610c67565b50565b600181815481101515610bbb57fe5b906000526020600020016000915090508054600181600116156101000203166002900480601f016020809104026020016040519081016040528092919081815260200182805460018160011615610100020316600290048015610c5f5780601f10610c3457610100808354040283529160200191610c5f565b820191906000526020600020905b815481529060010190602001808311610c4257829003601f168201915b505050505081565b600073ffffffffffffffffffffffffffffffffffffffff168173ffffffffffffffffffffffffffffffffffffffff1614151515610ca357600080fd5b8073ffffffffffffffffffffffffffffffffffffffff166000809054906101000a900473ffffffffffffffffffffffffffffffffffffffff1673ffffffffffffffffffffffffffffffffffffffff167f8be0079c531659141344cd1fd0a4f28419497f9722a3daafe3b4186f6b6457e060405160405180910390a3806000806101000a81548173ffffffffffffffffffffffffffffffffffffffff021916908373ffffffffffffffffffffffffffffffffffffffff16021790555050565b8260048101928215610d96579160200282015b82811115610d95578251829060001916905591602001919060010190610d74565b5b509050610da39190610da7565b5090565b610dc991905b80821115610dc5576000816000905550600101610dad565b5090565b905600a165627a7a72305820aca4ad99fecd4c624739a204429a9b2ce8749201e512a061d64d4378f450b6420029",
  "source": "pragma solidity ^0.4.24;\r\n\r\nimport \"./Ownable.sol\";\r\n\r\ncontract EncryptedFileFactory is Ownable {\r\n\r\n    string[] public EncryptionMethods = [\"AES\"];\r\n\r\n    struct Multihash {\r\n        bytes32 digest;\r\n        uint8 hashFunction;\r\n        uint8 size;\r\n    }\r\n\r\n    struct EncryptedFile {\r\n        Multihash filePath;\r\n        Multihash dataHash;\r\n        uint encriptionMethod;\r\n        mapping(address=>bytes32[4]) keys;\r\n    }\r\n\r\n    EncryptedFile[] public encryptedFiles;\r\n\r\n    event Created(address indexed by, uint indexed encryptedFile);\r\n    event GivenAccess(address indexed by, address indexed to, uint indexed encryptedFile);\r\n\r\n    function create(\r\n        address _by,\r\n        address[] _keysOwners,\r\n        bytes32[4][] _keys,\r\n        bytes32 _filePath_digest,\r\n        uint8 _filePath_hashFunction,\r\n        uint8 _filePath_size,\r\n        bytes32 _dataHash_digest,\r\n        uint8 _dataHash_hashFunction,\r\n        uint8 _dataHash_size,\r\n        uint _encriptionMethod\r\n    ) public onlyOwner returns (uint index) {\r\n\r\n        index = encryptedFiles.push(EncryptedFile({\r\n            filePath: Multihash({\r\n                digest: _filePath_digest,\r\n                hashFunction: _filePath_hashFunction,\r\n                size: _filePath_size\r\n            }),\r\n            dataHash: Multihash({\r\n                digest: _dataHash_digest,\r\n                hashFunction: _dataHash_hashFunction,\r\n                size: _dataHash_size\r\n            }),\r\n            encriptionMethod: _encriptionMethod\r\n        }));\r\n        index --;\r\n        EncryptedFile storage _encryptedFile = encryptedFiles[i];\r\n        \r\n        for (uint i = 0; i < _keysOwners.length; i++) {\r\n            _encryptedFile.keys[_keysOwners[i]] = [_keys[0][i], _keys[1][i],_keys[2][i], _keys[3][i]];\r\n            emit GivenAccess(_by, _keysOwners[i],index);\r\n        }\r\n    }\r\n\r\n    function giveAccess(uint _index, address _to, address _by, bytes32[4] _key) public onlyOwner {\r\n        encryptedFiles[_index].keys[_to] = _key;\r\n        emit GivenAccess(_by, _to, _index);\r\n    }\r\n\r\n}\r\n",
  "sourcePath": "D:\\SourceCode\\MedX\\MedX\\smart-contracts\\contracts\\EncryptedFileFactory.sol",
  "compiler": {
    "name": "solc",
    "version": "0.4.24+commit.e67f0147.Emscripten.clang"
  },
  "schemaVersion": "2.0.1",
  "updatedAt": "2018-08-24T14:07:59.996Z"
}