{
  "contractName": "EncryptedFileFactory",
  "abi": [
    {
      "constant": false,
      "inputs": [],
      "name": "renounceOwnership",
      "outputs": [],
      "payable": false,
      "stateMutability": "nonpayable",
      "type": "function"
    },
    {
      "constant": true,
      "inputs": [
        {
          "name": "",
          "type": "uint256"
        }
      ],
      "name": "HashMethods",
      "outputs": [
        {
          "name": "",
          "type": "string"
        }
      ],
      "payable": false,
      "stateMutability": "view",
      "type": "function"
    },
    {
      "constant": true,
      "inputs": [],
      "name": "owner",
      "outputs": [
        {
          "name": "",
          "type": "address"
        }
      ],
      "payable": false,
      "stateMutability": "view",
      "type": "function"
    },
    {
      "constant": true,
      "inputs": [
        {
          "name": "",
          "type": "uint256"
        }
      ],
      "name": "encryptedFiles",
      "outputs": [
        {
          "name": "filePath",
          "type": "string"
        },
        {
          "name": "dataHash",
          "type": "string"
        },
        {
          "name": "hashMethod",
          "type": "uint256"
        },
        {
          "name": "encriptionMethod",
          "type": "uint256"
        }
      ],
      "payable": false,
      "stateMutability": "view",
      "type": "function"
    },
    {
      "constant": false,
      "inputs": [
        {
          "name": "_newOwner",
          "type": "address"
        }
      ],
      "name": "transferOwnership",
      "outputs": [],
      "payable": false,
      "stateMutability": "nonpayable",
      "type": "function"
    },
    {
      "constant": true,
      "inputs": [
        {
          "name": "",
          "type": "uint256"
        }
      ],
      "name": "EncryptionMethods",
      "outputs": [
        {
          "name": "",
          "type": "string"
        }
      ],
      "payable": false,
      "stateMutability": "view",
      "type": "function"
    },
    {
      "anonymous": false,
      "inputs": [
        {
          "indexed": true,
          "name": "by",
          "type": "address"
        },
        {
          "indexed": true,
          "name": "encryptedFile",
          "type": "uint256"
        }
      ],
      "name": "Created",
      "type": "event"
    },
    {
      "anonymous": false,
      "inputs": [
        {
          "indexed": true,
          "name": "by",
          "type": "address"
        },
        {
          "indexed": true,
          "name": "to",
          "type": "address"
        },
        {
          "indexed": true,
          "name": "encryptedFile",
          "type": "uint256"
        }
      ],
      "name": "GivenAccess",
      "type": "event"
    },
    {
      "anonymous": false,
      "inputs": [
        {
          "indexed": true,
          "name": "previousOwner",
          "type": "address"
        }
      ],
      "name": "OwnershipRenounced",
      "type": "event"
    },
    {
      "anonymous": false,
      "inputs": [
        {
          "indexed": true,
          "name": "previousOwner",
          "type": "address"
        },
        {
          "indexed": true,
          "name": "newOwner",
          "type": "address"
        }
      ],
      "name": "OwnershipTransferred",
      "type": "event"
    },
    {
      "constant": false,
      "inputs": [
        {
          "name": "_by",
          "type": "address"
        },
        {
          "name": "_keysOwners",
          "type": "address[]"
        },
        {
          "name": "_keys",
          "type": "string[]"
        },
        {
          "name": "_filePath",
          "type": "string"
        },
        {
          "name": "_dataHash",
          "type": "string"
        },
        {
          "name": "_hashMethod",
          "type": "uint256"
        },
        {
          "name": "_encriptionMethod",
          "type": "uint256"
        }
      ],
      "name": "create",
      "outputs": [
        {
          "name": "index",
          "type": "uint256"
        }
      ],
      "payable": false,
      "stateMutability": "nonpayable",
      "type": "function"
    },
    {
      "constant": false,
      "inputs": [
        {
          "name": "_index",
          "type": "uint256"
        },
        {
          "name": "_to",
          "type": "address"
        },
        {
          "name": "_by",
          "type": "address"
        },
        {
          "name": "_key",
          "type": "string"
        }
      ],
      "name": "giveAccess",
      "outputs": [],
      "payable": false,
      "stateMutability": "nonpayable",
      "type": "function"
    }
  ],
  "bytecode": "0x60806040526020604051908101604052806040805190810160405280600781526020017f5348412d3531320000000000000000000000000000000000000000000000000081525081525060019060016200005b929190620000fa565b506020604051908101604052806040805190810160405280600381526020017f41455300000000000000000000000000000000000000000000000000000000008152508152506002906001620000b3929190620000fa565b50336000806101000a81548173ffffffffffffffffffffffffffffffffffffffff021916908373ffffffffffffffffffffffffffffffffffffffff1602179055506200028d565b8280548282559060005260206000209081019282156200014e579160200282015b828111156200014d5782518290805190602001906200013c92919062000161565b50916020019190600101906200011b565b5b5090506200015d9190620001e8565b5090565b828054600181600116156101000203166002900490600052602060002090601f016020900481019282601f10620001a457805160ff1916838001178555620001d5565b82800160010185558215620001d5579182015b82811115620001d4578251825591602001919060010190620001b7565b5b509050620001e4919062000219565b5090565b6200021691905b8082111562000212576000818162000208919062000241565b50600101620001ef565b5090565b90565b6200023e91905b808211156200023a57600081600090555060010162000220565b5090565b90565b50805460018160011615610100020316600290046000825580601f106200026957506200028a565b601f01602090049060005260206000209081019062000289919062000219565b5b50565b61127f806200029d6000396000f30060806040526004361061008e576000357c0100000000000000000000000000000000000000000000000000000000900463ffffffff168063715018a6146100935780638b9337bf146100aa5780638da5cb5b146100e7578063a893cd5914610112578063d6aa9e031461014f578063f2d5462e1461018f578063f2fde38b146101b8578063fc3bf40d146101e1575b600080fd5b34801561009f57600080fd5b506100a861021e565b005b3480156100b657600080fd5b506100d160048036036100cc9190810190610f1b565b610320565b6040516100de919061102e565b60405180910390f35b3480156100f357600080fd5b506100fc6103db565b6040516101099190611013565b60405180910390f35b34801561011e57600080fd5b5061013960048036036101349190810190610e1d565b610400565b60405161014691906110a3565b60405180910390f35b34801561015b57600080fd5b5061017660048036036101719190810190610f1b565b610647565b6040516101869493929190611050565b60405180910390f35b34801561019b57600080fd5b506101b660048036036101b19190810190610f44565b6107b6565b005b3480156101c457600080fd5b506101df60048036036101da9190810190610df4565b6108e4565b005b3480156101ed57600080fd5b5061020860048036036102039190810190610f1b565b61094b565b604051610215919061102e565b60405180910390f35b6000809054906101000a900473ffffffffffffffffffffffffffffffffffffffff1673ffffffffffffffffffffffffffffffffffffffff163373ffffffffffffffffffffffffffffffffffffffff1614151561027957600080fd5b6000809054906101000a900473ffffffffffffffffffffffffffffffffffffffff1673ffffffffffffffffffffffffffffffffffffffff167ff8df31144d9c2f0f6b59d69b8b98abd5459d07f2742c4df920b25aae33c6482060405160405180910390a260008060006101000a81548173ffffffffffffffffffffffffffffffffffffffff021916908373ffffffffffffffffffffffffffffffffffffffff160217905550565b60018181548110151561032f57fe5b906000526020600020016000915090508054600181600116156101000203166002900480601f0160208091040260200160405190810160405280929190818152602001828054600181600116156101000203166002900480156103d35780601f106103a8576101008083540402835291602001916103d3565b820191906000526020600020905b8154815290600101906020018083116103b657829003601f168201915b505050505081565b6000809054906101000a900473ffffffffffffffffffffffffffffffffffffffff1681565b60008060008060009054906101000a900473ffffffffffffffffffffffffffffffffffffffff1673ffffffffffffffffffffffffffffffffffffffff163373ffffffffffffffffffffffffffffffffffffffff1614151561046057600080fd5b6003608060405190810160405280898152602001888152602001878152602001868152509080600181540180825580915050906001820390600052602060002090600502016000909192909190915060008201518160000190805190602001906104cb929190610b00565b5060208201518160010190805190602001906104e8929190610b00565b5060408201518160020155606082015181600301555050925082806001900393505060038181548110151561051957fe5b90600052602060002090600502019150600090505b875181101561063a57878181518110151561054557fe5b906020019060200201518260040160008b8481518110151561056357fe5b9060200190602002015173ffffffffffffffffffffffffffffffffffffffff1673ffffffffffffffffffffffffffffffffffffffff16815260200190815260200160002090805190602001906105ba929190610b80565b508289828151811015156105ca57fe5b9060200190602002015173ffffffffffffffffffffffffffffffffffffffff168b73ffffffffffffffffffffffffffffffffffffffff167fd9746856d3dbc73c60e9258736fb51c1a4c41e817fcadab7110d3f0b4730ea6960405160405180910390a4808060010191505061052e565b5050979650505050505050565b60038181548110151561065657fe5b9060005260206000209060050201600091509050806000018054600181600116156101000203166002900480601f0160208091040260200160405190810160405280929190818152602001828054600181600116156101000203166002900480156107025780601f106106d757610100808354040283529160200191610702565b820191906000526020600020905b8154815290600101906020018083116106e557829003601f168201915b505050505090806001018054600181600116156101000203166002900480601f0160208091040260200160405190810160405280929190818152602001828054600181600116156101000203166002900480156107a05780601f10610775576101008083540402835291602001916107a0565b820191906000526020600020905b81548152906001019060200180831161078357829003601f168201915b5050505050908060020154908060030154905084565b6000809054906101000a900473ffffffffffffffffffffffffffffffffffffffff1673ffffffffffffffffffffffffffffffffffffffff163373ffffffffffffffffffffffffffffffffffffffff1614151561081157600080fd5b8060038581548110151561082157fe5b906000526020600020906005020160040160008573ffffffffffffffffffffffffffffffffffffffff1673ffffffffffffffffffffffffffffffffffffffff1681526020019081526020016000209080519060200190610882929190610b80565b50838373ffffffffffffffffffffffffffffffffffffffff168373ffffffffffffffffffffffffffffffffffffffff167fd9746856d3dbc73c60e9258736fb51c1a4c41e817fcadab7110d3f0b4730ea6960405160405180910390a450505050565b6000809054906101000a900473ffffffffffffffffffffffffffffffffffffffff1673ffffffffffffffffffffffffffffffffffffffff163373ffffffffffffffffffffffffffffffffffffffff1614151561093f57600080fd5b61094881610a06565b50565b60028181548110151561095a57fe5b906000526020600020016000915090508054600181600116156101000203166002900480601f0160208091040260200160405190810160405280929190818152602001828054600181600116156101000203166002900480156109fe5780601f106109d3576101008083540402835291602001916109fe565b820191906000526020600020905b8154815290600101906020018083116109e157829003601f168201915b505050505081565b600073ffffffffffffffffffffffffffffffffffffffff168173ffffffffffffffffffffffffffffffffffffffff1614151515610a4257600080fd5b8073ffffffffffffffffffffffffffffffffffffffff166000809054906101000a900473ffffffffffffffffffffffffffffffffffffffff1673ffffffffffffffffffffffffffffffffffffffff167f8be0079c531659141344cd1fd0a4f28419497f9722a3daafe3b4186f6b6457e060405160405180910390a3806000806101000a81548173ffffffffffffffffffffffffffffffffffffffff021916908373ffffffffffffffffffffffffffffffffffffffff16021790555050565b828054600181600116156101000203166002900490600052602060002090601f016020900481019282601f10610b4157805160ff1916838001178555610b6f565b82800160010185558215610b6f579182015b82811115610b6e578251825591602001919060010190610b53565b5b509050610b7c9190610c00565b5090565b828054600181600116156101000203166002900490600052602060002090601f016020900481019282601f10610bc157805160ff1916838001178555610bef565b82800160010185558215610bef579182015b82811115610bee578251825591602001919060010190610bd3565b5b509050610bfc9190610c00565b5090565b610c2291905b80821115610c1e576000816000905550600101610c06565b5090565b90565b6000610c3182356111c8565b905092915050565b600082601f8301121515610c4c57600080fd5b8135610c5f610c5a826110eb565b6110be565b91508181835260208401935060208101905083856020840282011115610c8457600080fd5b60005b83811015610cb45781610c9a8882610c25565b845260208401935060208301925050600181019050610c87565b5050505092915050565b600082601f8301121515610cd157600080fd5b8135610ce4610cdf82611113565b6110be565b9150818183526020840193506020810190508360005b83811015610d2a5781358601610d108882610d34565b845260208401935060208301925050600181019050610cfa565b5050505092915050565b600082601f8301121515610d4757600080fd5b8135610d5a610d558261113b565b6110be565b91508082526020830160208301858383011115610d7657600080fd5b610d818382846111f2565b50505092915050565b600082601f8301121515610d9d57600080fd5b8135610db0610dab82611167565b6110be565b91508082526020830160208301858383011115610dcc57600080fd5b610dd78382846111f2565b50505092915050565b6000610dec82356111e8565b905092915050565b600060208284031215610e0657600080fd5b6000610e1484828501610c25565b91505092915050565b600080600080600080600060e0888a031215610e3857600080fd5b6000610e468a828b01610c25565b975050602088013567ffffffffffffffff811115610e6357600080fd5b610e6f8a828b01610c39565b965050604088013567ffffffffffffffff811115610e8c57600080fd5b610e988a828b01610cbe565b955050606088013567ffffffffffffffff811115610eb557600080fd5b610ec18a828b01610d8a565b945050608088013567ffffffffffffffff811115610ede57600080fd5b610eea8a828b01610d8a565b93505060a0610efb8a828b01610de0565b92505060c0610f0c8a828b01610de0565b91505092959891949750929550565b600060208284031215610f2d57600080fd5b6000610f3b84828501610de0565b91505092915050565b60008060008060808587031215610f5a57600080fd5b6000610f6887828801610de0565b9450506020610f7987828801610c25565b9350506040610f8a87828801610c25565b925050606085013567ffffffffffffffff811115610fa757600080fd5b610fb387828801610d8a565b91505092959194509250565b610fc88161119e565b82525050565b6000610fd982611193565b808452610fed816020860160208601611201565b610ff681611234565b602085010191505092915050565b61100d816111be565b82525050565b60006020820190506110286000830184610fbf565b92915050565b600060208201905081810360008301526110488184610fce565b905092915050565b6000608082019050818103600083015261106a8187610fce565b9050818103602083015261107e8186610fce565b905061108d6040830185611004565b61109a6060830184611004565b95945050505050565b60006020820190506110b86000830184611004565b92915050565b6000604051905081810181811067ffffffffffffffff821117156110e157600080fd5b8060405250919050565b600067ffffffffffffffff82111561110257600080fd5b602082029050602081019050919050565b600067ffffffffffffffff82111561112a57600080fd5b602082029050602081019050919050565b600067ffffffffffffffff82111561115257600080fd5b601f19601f8301169050602081019050919050565b600067ffffffffffffffff82111561117e57600080fd5b601f19601f8301169050602081019050919050565b600081519050919050565b600073ffffffffffffffffffffffffffffffffffffffff82169050919050565b6000819050919050565b600073ffffffffffffffffffffffffffffffffffffffff82169050919050565b6000819050919050565b82818337600083830152505050565b60005b8381101561121f578082015181840152602081019050611204565b8381111561122e576000848401525b50505050565b6000601f19601f83011690509190505600a265627a7a7230582034bea3092b3b752d4e390f508a6da4e057e0403f5b767d28c8a41e2ae6f4985e6c6578706572696d656e74616cf50037",
  "source": "pragma solidity ^0.4.24;\r\npragma experimental ABIEncoderV2;\r\n\r\nimport \"./Ownable.sol\";\r\n\r\ncontract EncryptedFileFactory is Ownable {\r\n\r\n    string[] public HashMethods = [\"SHA-512\"]; \r\n    string[] public EncryptionMethods = [\"AES\"];\r\n\r\n    struct EncryptedFile {\r\n        string filePath;\r\n        string dataHash;\r\n        uint hashMethod;\r\n        uint encriptionMethod;\r\n        mapping(address=>string) keys;\r\n    }\r\n\r\n    EncryptedFile[] public encryptedFiles;\r\n\r\n    event Created(address indexed by, uint indexed encryptedFile);\r\n    event GivenAccess(address indexed by, address indexed to, uint indexed encryptedFile);\r\n\r\n    function create(\r\n        address _by,\r\n        address[] _keysOwners,\r\n        string[] _keys,\r\n        string _filePath,\r\n        string _dataHash,\r\n        uint _hashMethod,\r\n        uint _encriptionMethod\r\n    ) public onlyOwner returns (uint index) {\r\n\r\n        index = encryptedFiles.push(EncryptedFile({\r\n            filePath: _filePath,\r\n            dataHash: _dataHash,\r\n            hashMethod: _hashMethod,\r\n            encriptionMethod: _encriptionMethod\r\n        }));\r\n        index --;\r\n        EncryptedFile storage _encryptedFile = encryptedFiles[i];\r\n        \r\n        for (uint i = 0; i < _keys.length; i++) {\r\n            _encryptedFile.keys[_keysOwners[i]] = _keys[i];\r\n            emit GivenAccess(_by, _keysOwners[i],index);\r\n        }\r\n    }\r\n\r\n    function giveAccess(uint _index, address _to, address _by, string _key) public onlyOwner {\r\n        encryptedFiles[_index].keys[_to] = _key;\r\n        emit GivenAccess(_by, _to, _index);\r\n    }\r\n\r\n}\r\n",
  "sourcePath": "D:\\SourceCode\\MedX\\MedX\\smart-contracts\\contracts\\EncryptedFileFactory.sol",
  "compiler": {
    "name": "solc",
    "version": "0.4.24+commit.e67f0147.Emscripten.clang"
  },
  "schemaVersion": "2.0.1",
  "updatedAt": "2018-08-23T15:01:05.603Z"
}