{
  "contractName": "MedX",
  "abi": [
    {
      "constant": false,
      "inputs": [],
      "name": "renounceOwnership",
      "outputs": [],
      "payable": false,
      "stateMutability": "nonpayable",
      "type": "function"
    },
    {
      "constant": true,
      "inputs": [],
      "name": "owner",
      "outputs": [
        {
          "name": "",
          "type": "address"
        }
      ],
      "payable": false,
      "stateMutability": "view",
      "type": "function"
    },
    {
      "constant": false,
      "inputs": [
        {
          "name": "_newOwner",
          "type": "address"
        }
      ],
      "name": "transferOwnership",
      "outputs": [],
      "payable": false,
      "stateMutability": "nonpayable",
      "type": "function"
    },
    {
      "inputs": [],
      "payable": false,
      "stateMutability": "nonpayable",
      "type": "constructor"
    },
    {
      "anonymous": false,
      "inputs": [
        {
          "indexed": true,
          "name": "previousOwner",
          "type": "address"
        }
      ],
      "name": "OwnershipRenounced",
      "type": "event"
    },
    {
      "anonymous": false,
      "inputs": [
        {
          "indexed": true,
          "name": "previousOwner",
          "type": "address"
        },
        {
          "indexed": true,
          "name": "newOwner",
          "type": "address"
        }
      ],
      "name": "OwnershipTransferred",
      "type": "event"
    },
    {
      "constant": false,
      "inputs": [
        {
          "name": "_patient",
          "type": "address"
        },
        {
          "name": "_keysOwners",
          "type": "address[]"
        },
        {
          "name": "_keys",
          "type": "bytes32[4][]"
        },
        {
          "name": "_filePath_digest",
          "type": "bytes32[]"
        },
        {
          "name": "_filePath_hashFunction",
          "type": "uint8[]"
        },
        {
          "name": "_filePath_size",
          "type": "uint8[]"
        },
        {
          "name": "_dataHash_digest",
          "type": "bytes32[]"
        },
        {
          "name": "_dataHash_hashFunction",
          "type": "uint8[]"
        },
        {
          "name": "_dataHash_size",
          "type": "uint8[]"
        },
        {
          "name": "_encriptionMethod",
          "type": "uint256[]"
        }
      ],
      "name": "createRecord",
      "outputs": [
        {
          "name": "index",
          "type": "uint256"
        }
      ],
      "payable": false,
      "stateMutability": "nonpayable",
      "type": "function"
    }
  ],
  "bytecode": "0x608060405234801561001057600080fd5b50336000806101000a81548173ffffffffffffffffffffffffffffffffffffffff021916908373ffffffffffffffffffffffffffffffffffffffff160217905550610059610120565b604051809103906000f080158015610075573d6000803e3d6000fd5b50600160006101000a81548173ffffffffffffffffffffffffffffffffffffffff021916908373ffffffffffffffffffffffffffffffffffffffff1602179055506100be610130565b604051809103906000f0801580156100da573d6000803e3d6000fd5b50600260006101000a81548173ffffffffffffffffffffffffffffffffffffffff021916908373ffffffffffffffffffffffffffffffffffffffff160217905550610140565b60405161103d80610c7a83390190565b60405161074780611cb783390190565b610b2b8061014f6000396000f300608060405260043610610062576000357c0100000000000000000000000000000000000000000000000000000000900463ffffffff16806303b9703014610067578063715018a6146103555780638da5cb5b1461036c578063f2fde38b146103c3575b600080fd5b34801561007357600080fd5b5061033f600480360381019080803573ffffffffffffffffffffffffffffffffffffffff1690602001909291908035906020019082018035906020019080806020026020016040519081016040528093929190818152602001838360200280828437820191505050505050919291929080359060200190820180359060200190808060200260200160405190810160405280939291908181526020016000905b82821015610158578484839050608002016004806020026040519081016040528092919082600460200280828437820191505050505081526020019060010190610113565b5050505050919291929080359060200190820180359060200190808060200260200160405190810160405280939291908181526020018383602002808284378201915050505050509192919290803590602001908201803590602001908080602002602001604051908101604052809392919081815260200183836020028082843782019150505050505091929192908035906020019082018035906020019080806020026020016040519081016040528093929190818152602001838360200280828437820191505050505050919291929080359060200190820180359060200190808060200260200160405190810160405280939291908181526020018383602002808284378201915050505050509192919290803590602001908201803590602001908080602002602001604051908101604052809392919081815260200183836020028082843782019150505050505091929192908035906020019082018035906020019080806020026020016040519081016040528093929190818152602001838360200280828437820191505050505050919291929080359060200190820180359060200190808060200260200160405190810160405280939291908181526020018383602002808284378201915050505050509192919290505050610406565b6040518082815260200191505060405180910390f35b34801561036157600080fd5b5061036a610877565b005b34801561037857600080fd5b50610381610979565b604051808273ffffffffffffffffffffffffffffffffffffffff1673ffffffffffffffffffffffffffffffffffffffff16815260200191505060405180910390f35b3480156103cf57600080fd5b50610404600480360381019080803573ffffffffffffffffffffffffffffffffffffffff16906020019092919050505061099e565b005b6000606060008090505b83518110156106f057600160009054906101000a900473ffffffffffffffffffffffffffffffffffffffff1673ffffffffffffffffffffffffffffffffffffffff16638173398a338e8e8e8681518110151561046857fe5b906020019060200201518e8781518110151561048057fe5b906020019060200201518e8881518110151561049857fe5b906020019060200201518e898151811015156104b057fe5b906020019060200201518e8a8151811015156104c857fe5b906020019060200201518e8b8151811015156104e057fe5b906020019060200201518e8c8151811015156104f857fe5b906020019060200201516040518b63ffffffff167c0100000000000000000000000000000000000000000000000000000000028152600401808b73ffffffffffffffffffffffffffffffffffffffff1673ffffffffffffffffffffffffffffffffffffffff16815260200180602001806020018a600019166000191681526020018960ff1660ff1681526020018860ff1660ff16815260200187600019166000191681526020018660ff1660ff1681526020018560ff1660ff16815260200184815260200183810383528c818151815260200191508051906020019060200280838360005b838110156105f85780820151818401526020810190506105dd565b5050505090500183810382528b8181518152602001915080516000925b8184101561066057828490602001906020020151600460200280838360005b8381101561064f578082015181840152602081019050610634565b505050509050019260010192610615565b925050509c50505050505050505050505050602060405180830381600087803b15801561068c57600080fd5b505af11580156106a0573d6000803e3d6000fd5b505050506040513d60208110156106b657600080fd5b810190808051906020019092919050505082828151811015156106d557fe5b90602001906020020181815250508080600101915050610410565b600260009054906101000a900473ffffffffffffffffffffffffffffffffffffffff1673ffffffffffffffffffffffffffffffffffffffff16632bfdced78e33856040518463ffffffff167c0100000000000000000000000000000000000000000000000000000000028152600401808473ffffffffffffffffffffffffffffffffffffffff1673ffffffffffffffffffffffffffffffffffffffff1681526020018373ffffffffffffffffffffffffffffffffffffffff1673ffffffffffffffffffffffffffffffffffffffff16815260200180602001828103825283818151815260200191508051906020019060200280838360005b838110156108035780820151818401526020810190506107e8565b50505050905001945050505050602060405180830381600087803b15801561082a57600080fd5b505af115801561083e573d6000803e3d6000fd5b505050506040513d602081101561085457600080fd5b8101908080519060200190929190505050925050509a9950505050505050505050565b6000809054906101000a900473ffffffffffffffffffffffffffffffffffffffff1673ffffffffffffffffffffffffffffffffffffffff163373ffffffffffffffffffffffffffffffffffffffff161415156108d257600080fd5b6000809054906101000a900473ffffffffffffffffffffffffffffffffffffffff1673ffffffffffffffffffffffffffffffffffffffff167ff8df31144d9c2f0f6b59d69b8b98abd5459d07f2742c4df920b25aae33c6482060405160405180910390a260008060006101000a81548173ffffffffffffffffffffffffffffffffffffffff021916908373ffffffffffffffffffffffffffffffffffffffff160217905550565b6000809054906101000a900473ffffffffffffffffffffffffffffffffffffffff1681565b6000809054906101000a900473ffffffffffffffffffffffffffffffffffffffff1673ffffffffffffffffffffffffffffffffffffffff163373ffffffffffffffffffffffffffffffffffffffff161415156109f957600080fd5b610a0281610a05565b50565b600073ffffffffffffffffffffffffffffffffffffffff168173ffffffffffffffffffffffffffffffffffffffff1614151515610a4157600080fd5b8073ffffffffffffffffffffffffffffffffffffffff166000809054906101000a900473ffffffffffffffffffffffffffffffffffffffff1673ffffffffffffffffffffffffffffffffffffffff167f8be0079c531659141344cd1fd0a4f28419497f9722a3daafe3b4186f6b6457e060405160405180910390a3806000806101000a81548173ffffffffffffffffffffffffffffffffffffffff021916908373ffffffffffffffffffffffffffffffffffffffff160217905550505600a165627a7a7230582003606e16c7b547bdd1e84a13db56a3331fa652bff588f2eb210fe95620ff50d7002960806040526020604051908101604052806040805190810160405280600381526020017f414553000000000000000000000000000000000000000000000000000000000081525081525060019060016200005b929190620000a2565b50336000806101000a81548173ffffffffffffffffffffffffffffffffffffffff021916908373ffffffffffffffffffffffffffffffffffffffff16021790555062000235565b828054828255906000526020600020908101928215620000f6579160200282015b82811115620000f5578251829080519060200190620000e492919062000109565b5091602001919060010190620000c3565b5b50905062000105919062000190565b5090565b828054600181600116156101000203166002900490600052602060002090601f016020900481019282601f106200014c57805160ff19168380011785556200017d565b828001600101855582156200017d579182015b828111156200017c5782518255916020019190600101906200015f565b5b5090506200018c9190620001c1565b5090565b620001be91905b80821115620001ba5760008181620001b09190620001e9565b5060010162000197565b5090565b90565b620001e691905b80821115620001e2576000816000905550600101620001c8565b5090565b90565b50805460018160011615610100020316600290046000825580601f1062000211575062000232565b601f016020900490600052602060002090810190620002319190620001c1565b5b50565b610df880620002456000396000f300608060405260043610610083576000357c0100000000000000000000000000000000000000000000000000000000900463ffffffff168063715018a6146100885780638173398a1461009f5780638da5cb5b14610212578063d6aa9e0314610269578063df594380146102b8578063f2fde38b14610354578063fc3bf40d14610397575b600080fd5b34801561009457600080fd5b5061009d61043d565b005b3480156100ab57600080fd5b506101fc600480360381019080803573ffffffffffffffffffffffffffffffffffffffff1690602001909291908035906020019082018035906020019080806020026020016040519081016040528093929190818152602001838360200280828437820191505050505050919291929080359060200190820180359060200190808060200260200160405190810160405280939291908181526020016000905b8282101561019057848483905060800201600480602002604051908101604052809291908260046020028082843782019150505050508152602001906001019061014b565b505050505091929192908035600019169060200190929190803560ff169060200190929190803560ff1690602001909291908035600019169060200190929190803560ff169060200190929190803560ff1690602001909291908035906020019092919050505061053f565b6040518082815260200191505060405180910390f35b34801561021e57600080fd5b50610227610910565b604051808273ffffffffffffffffffffffffffffffffffffffff1673ffffffffffffffffffffffffffffffffffffffff16815260200191505060405180910390f35b34801561027557600080fd5b5061029460048036038101908080359060200190929190505050610935565b60405180848152602001838152602001828152602001935050505060405180910390f35b3480156102c457600080fd5b5061035260048036038101908080359060200190929190803573ffffffffffffffffffffffffffffffffffffffff169060200190929190803573ffffffffffffffffffffffffffffffffffffffff1690602001909291908060800190600480602002604051908101604052809291908260046020028082843782019150505050509192919290505050610a1c565b005b34801561036057600080fd5b50610395600480360381019080803573ffffffffffffffffffffffffffffffffffffffff169060200190929190505050610b45565b005b3480156103a357600080fd5b506103c260048036038101908080359060200190929190505050610bac565b6040518080602001828103825283818151815260200191508051906020019080838360005b838110156104025780820151818401526020810190506103e7565b50505050905090810190601f16801561042f5780820380516001836020036101000a031916815260200191505b509250505060405180910390f35b6000809054906101000a900473ffffffffffffffffffffffffffffffffffffffff1673ffffffffffffffffffffffffffffffffffffffff163373ffffffffffffffffffffffffffffffffffffffff1614151561049857600080fd5b6000809054906101000a900473ffffffffffffffffffffffffffffffffffffffff1673ffffffffffffffffffffffffffffffffffffffff167ff8df31144d9c2f0f6b59d69b8b98abd5459d07f2742c4df920b25aae33c6482060405160405180910390a260008060006101000a81548173ffffffffffffffffffffffffffffffffffffffff021916908373ffffffffffffffffffffffffffffffffffffffff160217905550565b60008060008060009054906101000a900473ffffffffffffffffffffffffffffffffffffffff1673ffffffffffffffffffffffffffffffffffffffff163373ffffffffffffffffffffffffffffffffffffffff1614151561059f57600080fd5b60026060604051908101604052806060604051908101604052808e6000191681526020018d60ff1681526020018c60ff1681525081526020016060604051908101604052808b6000191681526020018a60ff1681526020018960ff16815250815260200186815250908060018154018082558091505090600182039060005260206000209060060201600090919290919091506000820151816000016000820151816000019060001916905560208201518160010160006101000a81548160ff021916908360ff16021790555060408201518160010160016101000a81548160ff021916908360ff16021790555050506020820151816002016000820151816000019060001916905560208201518160010160006101000a81548160ff021916908360ff16021790555060408201518160010160016101000a81548160ff021916908360ff1602179055505050604082015181600401555050925082806001900393505060028181548110151561071257fe5b90600052602060002090600602019150600090505b8b51811015610900576080604051908101604052808c600081518110151561074b57fe5b906020019060200201518360048110151561076257fe5b6020020151600019166000191681526020018c600181518110151561078357fe5b906020019060200201518360048110151561079a57fe5b6020020151600019166000191681526020018c60028151811015156107bb57fe5b90602001906020020151836004811015156107d257fe5b6020020151600019166000191681526020018c60038151811015156107f357fe5b906020019060200201518360048110151561080a57fe5b602002015160001916600019168152508260050160008e8481518110151561082e57fe5b9060200190602002015173ffffffffffffffffffffffffffffffffffffffff1673ffffffffffffffffffffffffffffffffffffffff168152602001908152602001600020906004610880929190610d61565b50828c8281518110151561089057fe5b9060200190602002015173ffffffffffffffffffffffffffffffffffffffff168e73ffffffffffffffffffffffffffffffffffffffff167fd9746856d3dbc73c60e9258736fb51c1a4c41e817fcadab7110d3f0b4730ea6960405160405180910390a48080600101915050610727565b50509a9950505050505050505050565b6000809054906101000a900473ffffffffffffffffffffffffffffffffffffffff1681565b60028181548110151561094457fe5b906000526020600020906006020160009150905080600001606060405190810160405290816000820154600019166000191681526020016001820160009054906101000a900460ff1660ff1660ff1681526020016001820160019054906101000a900460ff1660ff1660ff16815250509080600201606060405190810160405290816000820154600019166000191681526020016001820160009054906101000a900460ff1660ff1660ff1681526020016001820160019054906101000a900460ff1660ff1660ff1681525050908060040154905083565b6000809054906101000a900473ffffffffffffffffffffffffffffffffffffffff1673ffffffffffffffffffffffffffffffffffffffff163373ffffffffffffffffffffffffffffffffffffffff16141515610a7757600080fd5b80600285815481101515610a8757fe5b906000526020600020906006020160050160008573ffffffffffffffffffffffffffffffffffffffff1673ffffffffffffffffffffffffffffffffffffffff168152602001908152602001600020906004610ae3929190610d61565b50838373ffffffffffffffffffffffffffffffffffffffff168373ffffffffffffffffffffffffffffffffffffffff167fd9746856d3dbc73c60e9258736fb51c1a4c41e817fcadab7110d3f0b4730ea6960405160405180910390a450505050565b6000809054906101000a900473ffffffffffffffffffffffffffffffffffffffff1673ffffffffffffffffffffffffffffffffffffffff163373ffffffffffffffffffffffffffffffffffffffff16141515610ba057600080fd5b610ba981610c67565b50565b600181815481101515610bbb57fe5b906000526020600020016000915090508054600181600116156101000203166002900480601f016020809104026020016040519081016040528092919081815260200182805460018160011615610100020316600290048015610c5f5780601f10610c3457610100808354040283529160200191610c5f565b820191906000526020600020905b815481529060010190602001808311610c4257829003601f168201915b505050505081565b600073ffffffffffffffffffffffffffffffffffffffff168173ffffffffffffffffffffffffffffffffffffffff1614151515610ca357600080fd5b8073ffffffffffffffffffffffffffffffffffffffff166000809054906101000a900473ffffffffffffffffffffffffffffffffffffffff1673ffffffffffffffffffffffffffffffffffffffff167f8be0079c531659141344cd1fd0a4f28419497f9722a3daafe3b4186f6b6457e060405160405180910390a3806000806101000a81548173ffffffffffffffffffffffffffffffffffffffff021916908373ffffffffffffffffffffffffffffffffffffffff16021790555050565b8260048101928215610d96579160200282015b82811115610d95578251829060001916905591602001919060010190610d74565b5b509050610da39190610da7565b5090565b610dc991905b80821115610dc5576000816000905550600101610dad565b5090565b905600a165627a7a72305820aca4ad99fecd4c624739a204429a9b2ce8749201e512a061d64d4378f450b64200296080604052336000806101000a81548173ffffffffffffffffffffffffffffffffffffffff021916908373ffffffffffffffffffffffffffffffffffffffff1602179055506106f4806100536000396000f300608060405260043610610062576000357c0100000000000000000000000000000000000000000000000000000000900463ffffffff1680632bfdced714610067578063715018a6146101215780638da5cb5b14610138578063f2fde38b1461018f575b600080fd5b34801561007357600080fd5b5061010b600480360381019080803573ffffffffffffffffffffffffffffffffffffffff169060200190929190803573ffffffffffffffffffffffffffffffffffffffff169060200190929190803590602001908201803590602001908080602002602001604051908101604052809392919081815260200183836020028082843782019150505050505091929192905050506101d2565b6040518082815260200191505060405180910390f35b34801561012d57600080fd5b506101366103ce565b005b34801561014457600080fd5b5061014d6104d0565b604051808273ffffffffffffffffffffffffffffffffffffffff1673ffffffffffffffffffffffffffffffffffffffff16815260200191505060405180910390f35b34801561019b57600080fd5b506101d0600480360381019080803573ffffffffffffffffffffffffffffffffffffffff1690602001909291905050506104f5565b005b60008060009054906101000a900473ffffffffffffffffffffffffffffffffffffffff1673ffffffffffffffffffffffffffffffffffffffff163373ffffffffffffffffffffffffffffffffffffffff1614151561022f57600080fd5b6000825111151561023f57600080fd5b60016060604051908101604052808673ffffffffffffffffffffffffffffffffffffffff1681526020018573ffffffffffffffffffffffffffffffffffffffff168152602001848152509080600181540180825580915050906001820390600052602060002090600302016000909192909190915060008201518160000160006101000a81548173ffffffffffffffffffffffffffffffffffffffff021916908373ffffffffffffffffffffffffffffffffffffffff16021790555060208201518160010160006101000a81548173ffffffffffffffffffffffffffffffffffffffff021916908373ffffffffffffffffffffffffffffffffffffffff160217905550604082015181600201908051906020019061035e929190610656565b5050509050808060019003915050803373ffffffffffffffffffffffffffffffffffffffff168573ffffffffffffffffffffffffffffffffffffffff167f822b3073be62c5c7f143c2dcd71ee266434ee935d90a1eec3be34710ac8ec1a260405160405180910390a49392505050565b6000809054906101000a900473ffffffffffffffffffffffffffffffffffffffff1673ffffffffffffffffffffffffffffffffffffffff163373ffffffffffffffffffffffffffffffffffffffff1614151561042957600080fd5b6000809054906101000a900473ffffffffffffffffffffffffffffffffffffffff1673ffffffffffffffffffffffffffffffffffffffff167ff8df31144d9c2f0f6b59d69b8b98abd5459d07f2742c4df920b25aae33c6482060405160405180910390a260008060006101000a81548173ffffffffffffffffffffffffffffffffffffffff021916908373ffffffffffffffffffffffffffffffffffffffff160217905550565b6000809054906101000a900473ffffffffffffffffffffffffffffffffffffffff1681565b6000809054906101000a900473ffffffffffffffffffffffffffffffffffffffff1673ffffffffffffffffffffffffffffffffffffffff163373ffffffffffffffffffffffffffffffffffffffff1614151561055057600080fd5b6105598161055c565b50565b600073ffffffffffffffffffffffffffffffffffffffff168173ffffffffffffffffffffffffffffffffffffffff161415151561059857600080fd5b8073ffffffffffffffffffffffffffffffffffffffff166000809054906101000a900473ffffffffffffffffffffffffffffffffffffffff1673ffffffffffffffffffffffffffffffffffffffff167f8be0079c531659141344cd1fd0a4f28419497f9722a3daafe3b4186f6b6457e060405160405180910390a3806000806101000a81548173ffffffffffffffffffffffffffffffffffffffff021916908373ffffffffffffffffffffffffffffffffffffffff16021790555050565b828054828255906000526020600020908101928215610692579160200282015b82811115610691578251825591602001919060010190610676565b5b50905061069f91906106a3565b5090565b6106c591905b808211156106c15760008160009055506001016106a9565b5090565b905600a165627a7a7230582006ce36e7f53d677453c96519765601ccb18e04f0ddfb615ea75d37979f320fb00029",
  "source": "pragma solidity ^0.4.24;\r\n\r\nimport \"./Ownable.sol\";\r\nimport \"./RecordFactory.sol\";\r\nimport \"./EncryptedFileFactory.sol\";\r\n\r\ncontract MedX is Ownable{\r\n    \r\n    EncryptedFileFactory encyptedFileFactory;\r\n    RecordFactory recordFactory;\r\n\r\n    constructor() public {\r\n        encyptedFileFactory = new EncryptedFileFactory();\r\n        recordFactory = new RecordFactory();\r\n    }\r\n\r\n    function createRecord(\r\n        address _patient,\r\n        address[] _keysOwners,\r\n        bytes32[4][] _keys,\r\n        bytes32[] _filePath_digest,\r\n        uint8[] _filePath_hashFunction,\r\n        uint8[] _filePath_size,\r\n        bytes32[] _dataHash_digest,\r\n        uint8[] _dataHash_hashFunction,\r\n        uint8[] _dataHash_size,\r\n        uint[] _encriptionMethod\r\n    ) public returns (uint index) {\r\n        uint[] memory attachments;\r\n\r\n        for (uint i = 0; i < _encriptionMethod.length; i++) {\r\n            attachments[i] = encyptedFileFactory.create(\r\n                msg.sender, _keysOwners, _keys,\r\n                _filePath_digest[i],\r\n                _filePath_hashFunction[i],\r\n                _filePath_size[i],\r\n                _dataHash_digest[i],\r\n                _dataHash_hashFunction[i],\r\n                _dataHash_size[i],\r\n                _encriptionMethod[i]\r\n            );\r\n        }\r\n\r\n        index = recordFactory.create(_patient, msg.sender, attachments);\r\n    }\r\n}",
  "sourcePath": "D:\\SourceCode\\MedX\\MedX\\smart-contracts\\contracts\\MedX.sol",
  "compiler": {
    "name": "solc",
    "version": "0.4.24+commit.e67f0147.Emscripten.clang"
  },
  "schemaVersion": "2.0.1",
  "updatedAt": "2018-08-24T14:07:59.992Z"
}