{
  "contractName": "RecordFactory",
  "abi": [
    {
      "inputs": [
        {
          "name": "_KSFactory",
          "type": "address"
        }
      ],
      "payable": false,
      "stateMutability": "nonpayable",
      "type": "constructor"
    },
    {
      "constant": false,
      "inputs": [
        {
          "name": "_patient",
          "type": "address"
        },
        {
          "name": "_patientKS",
          "type": "address"
        },
        {
          "name": "_doctorKS",
          "type": "address"
        },
        {
          "name": "_patientKey",
          "type": "string"
        },
        {
          "name": "_doctorsKey",
          "type": "string"
        },
        {
          "name": "_record",
          "type": "address"
        },
        {
          "name": "_attachments",
          "type": "address[]"
        }
      ],
      "name": "create",
      "outputs": [
        {
          "name": "",
          "type": "address"
        }
      ],
      "payable": false,
      "stateMutability": "nonpayable",
      "type": "function"
    },
    {
      "constant": false,
      "inputs": [
        {
          "name": "_patient",
          "type": "address"
        },
        {
          "name": "_patientKS",
          "type": "address"
        },
        {
          "name": "_doctorKS",
          "type": "address"
        },
        {
          "name": "_patientKey",
          "type": "string"
        },
        {
          "name": "_doctorsKey",
          "type": "string"
        },
        {
          "name": "_record_filePath",
          "type": "string"
        },
        {
          "name": "_record_dataHash",
          "type": "string"
        },
        {
          "name": "_record_hashMethod",
          "type": "string"
        },
        {
          "name": "_record_encriptionMethod",
          "type": "string"
        },
        {
          "name": "_attachments",
          "type": "address[]"
        }
      ],
      "name": "createQuick",
      "outputs": [
        {
          "name": "",
          "type": "address"
        }
      ],
      "payable": false,
      "stateMutability": "nonpayable",
      "type": "function"
    }
  ],
  "bytecode": "0x608060405234801561001057600080fd5b5060405160208061165a83398101806040528101908080519060200190929190505050806000806101000a81548173ffffffffffffffffffffffffffffffffffffffff021916908373ffffffffffffffffffffffffffffffffffffffff160217905550506115d7806100836000396000f30060806040526004361061004c576000357c0100000000000000000000000000000000000000000000000000000000900463ffffffff16806307955613146100515780635aecc81a146102fb575b600080fd5b34801561005d57600080fd5b506102b9600480360381019080803573ffffffffffffffffffffffffffffffffffffffff169060200190929190803573ffffffffffffffffffffffffffffffffffffffff169060200190929190803573ffffffffffffffffffffffffffffffffffffffff169060200190929190803590602001908201803590602001908080601f0160208091040260200160405190810160405280939291908181526020018383808284378201915050505050509192919290803590602001908201803590602001908080601f0160208091040260200160405190810160405280939291908181526020018383808284378201915050505050509192919290803590602001908201803590602001908080601f0160208091040260200160405190810160405280939291908181526020018383808284378201915050505050509192919290803590602001908201803590602001908080601f0160208091040260200160405190810160405280939291908181526020018383808284378201915050505050509192919290803590602001908201803590602001908080601f0160208091040260200160405190810160405280939291908181526020018383808284378201915050505050509192919290803590602001908201803590602001908080601f0160208091040260200160405190810160405280939291908181526020018383808284378201915050505050509192919290803590602001908201803590602001908080602002602001604051908101604052809392919081815260200183836020028082843782019150505050505091929192905050506104ad565b604051808273ffffffffffffffffffffffffffffffffffffffff1673ffffffffffffffffffffffffffffffffffffffff16815260200191505060405180910390f35b34801561030757600080fd5b5061046b600480360381019080803573ffffffffffffffffffffffffffffffffffffffff169060200190929190803573ffffffffffffffffffffffffffffffffffffffff169060200190929190803573ffffffffffffffffffffffffffffffffffffffff169060200190929190803590602001908201803590602001908080601f0160208091040260200160405190810160405280939291908181526020018383808284378201915050505050509192919290803590602001908201803590602001908080601f0160208091040260200160405190810160405280939291908181526020018383808284378201915050505050509192919290803573ffffffffffffffffffffffffffffffffffffffff169060200190929190803590602001908201803590602001908080602002602001604051908101604052809392919081815260200183836020028082843782019150505050505091929192905050506106ae565b604051808273ffffffffffffffffffffffffffffffffffffffff1673ffffffffffffffffffffffffffffffffffffffff16815260200191505060405180910390f35b600080868686866104bc6109db565b8080602001806020018060200180602001858103855289818151815260200191508051906020019080838360005b838110156105055780820151818401526020810190506104ea565b50505050905090810190601f1680156105325780820380516001836020036101000a031916815260200191505b50858103845288818151815260200191508051906020019080838360005b8381101561056b578082015181840152602081019050610550565b50505050905090810190601f1680156105985780820380516001836020036101000a031916815260200191505b50858103835287818151815260200191508051906020019080838360005b838110156105d15780820151818401526020810190506105b6565b50505050905090810190601f1680156105fe5780820380516001836020036101000a031916815260200191505b50858103825286818151815260200191508051906020019080838360005b8381101561063757808201518184015260208101905061061c565b50505050905090810190601f1680156106645780820380516001836020036101000a031916815260200191505b5098505050505050505050604051809103906000f08015801561068b573d6000803e3d6000fd5b50905061069d8c8c8c8c8c86896106ae565b9150509a9950505050505050505050565b6000808884846106bc6109eb565b808473ffffffffffffffffffffffffffffffffffffffff1673ffffffffffffffffffffffffffffffffffffffff1681526020018373ffffffffffffffffffffffffffffffffffffffff1673ffffffffffffffffffffffffffffffffffffffff16815260200180602001828103825283818151815260200191508051906020019060200280838360005b83811015610760578082015181840152602081019050610745565b50505050905001945050505050604051809103906000f080158015610789573d6000803e3d6000fd5b5090508773ffffffffffffffffffffffffffffffffffffffff166336d6da5582886040518363ffffffff167c0100000000000000000000000000000000000000000000000000000000028152600401808373ffffffffffffffffffffffffffffffffffffffff1673ffffffffffffffffffffffffffffffffffffffff16815260200180602001828103825283818151815260200191508051906020019080838360005b8381101561084757808201518184015260208101905061082c565b50505050905090810190601f1680156108745780820380516001836020036101000a031916815260200191505b509350505050600060405180830381600087803b15801561089457600080fd5b505af11580156108a8573d6000803e3d6000fd5b505050508673ffffffffffffffffffffffffffffffffffffffff166336d6da5582876040518363ffffffff167c0100000000000000000000000000000000000000000000000000000000028152600401808373ffffffffffffffffffffffffffffffffffffffff1673ffffffffffffffffffffffffffffffffffffffff16815260200180602001828103825283818151815260200191508051906020019080838360005b8381101561096757808201518184015260208101905061094c565b50505050905090810190601f1680156109945780820380516001836020036101000a031916815260200191505b509350505050600060405180830381600087803b1580156109b457600080fd5b505af11580156109c8573d6000803e3d6000fd5b5050505080915050979650505050505050565b6040516106b5806109fc83390190565b6040516104fb806110b1833901905600608060405234801561001057600080fd5b506040516106b53803806106b58339810180604052810190808051820192919060200180518201929190602001805182019291906020018051820192919050505083600090805190602001906100679291906100b6565b50826001908051906020019061007e9291906100b6565b5081600290805190602001906100959291906100b6565b5080600390805190602001906100ac9291906100b6565b505050505061015b565b828054600181600116156101000203166002900490600052602060002090601f016020900481019282601f106100f757805160ff1916838001178555610125565b82800160010185558215610125579182015b82811115610124578251825591602001919060010190610109565b5b5090506101329190610136565b5090565b61015891905b8082111561015457600081600090555060010161013c565b5090565b90565b61054b8061016a6000396000f300608060405260043610610062576000357c0100000000000000000000000000000000000000000000000000000000900463ffffffff1680631b3012a314610067578063349b5b3e146100f75780634fb9f5641461018757806364d6d14d14610217575b600080fd5b34801561007357600080fd5b5061007c6102a7565b6040518080602001828103825283818151815260200191508051906020019080838360005b838110156100bc5780820151818401526020810190506100a1565b50505050905090810190601f1680156100e95780820380516001836020036101000a031916815260200191505b509250505060405180910390f35b34801561010357600080fd5b5061010c610345565b6040518080602001828103825283818151815260200191508051906020019080838360005b8381101561014c578082015181840152602081019050610131565b50505050905090810190601f1680156101795780820380516001836020036101000a031916815260200191505b509250505060405180910390f35b34801561019357600080fd5b5061019c6103e3565b6040518080602001828103825283818151815260200191508051906020019080838360005b838110156101dc5780820151818401526020810190506101c1565b50505050905090810190601f1680156102095780820380516001836020036101000a031916815260200191505b509250505060405180910390f35b34801561022357600080fd5b5061022c610481565b6040518080602001828103825283818151815260200191508051906020019080838360005b8381101561026c578082015181840152602081019050610251565b50505050905090810190601f1680156102995780820380516001836020036101000a031916815260200191505b509250505060405180910390f35b60018054600181600116156101000203166002900480601f01602080910402602001604051908101604052809291908181526020018280546001816001161561010002031660029004801561033d5780601f106103125761010080835404028352916020019161033d565b820191906000526020600020905b81548152906001019060200180831161032057829003601f168201915b505050505081565b60028054600181600116156101000203166002900480601f0160208091040260200160405190810160405280929190818152602001828054600181600116156101000203166002900480156103db5780601f106103b0576101008083540402835291602001916103db565b820191906000526020600020905b8154815290600101906020018083116103be57829003601f168201915b505050505081565b60038054600181600116156101000203166002900480601f0160208091040260200160405190810160405280929190818152602001828054600181600116156101000203166002900480156104795780601f1061044e57610100808354040283529160200191610479565b820191906000526020600020905b81548152906001019060200180831161045c57829003601f168201915b505050505081565b60008054600181600116156101000203166002900480601f0160208091040260200160405190810160405280929190818152602001828054600181600116156101000203166002900480156105175780601f106104ec57610100808354040283529160200191610517565b820191906000526020600020905b8154815290600101906020018083116104fa57829003601f168201915b5050505050815600a165627a7a72305820508db3b8fd9fce7864a4788f2c8a45f2e5d287dbefca830cc923464fa1e859540029608060405234801561001057600080fd5b506040516104fb3803806104fb833981018060405281019080805190602001909291908051906020019092919080518201929190505050826000806101000a81548173ffffffffffffffffffffffffffffffffffffffff021916908373ffffffffffffffffffffffffffffffffffffffff16021790555033600160006101000a81548173ffffffffffffffffffffffffffffffffffffffff021916908373ffffffffffffffffffffffffffffffffffffffff1602179055504260028190555081600360006101000a81548173ffffffffffffffffffffffffffffffffffffffff021916908373ffffffffffffffffffffffffffffffffffffffff160217905550806004908051906020019061012692919061012f565b505050506101fc565b8280548282559060005260206000209081019282156101a8579160200282015b828111156101a75782518260006101000a81548173ffffffffffffffffffffffffffffffffffffffff021916908373ffffffffffffffffffffffffffffffffffffffff1602179055509160200191906001019061014f565b5b5090506101b591906101b9565b5090565b6101f991905b808211156101f557600081816101000a81549073ffffffffffffffffffffffffffffffffffffffff0219169055506001016101bf565b5090565b90565b6102f08061020b6000396000f30060806040526004361061006d576000357c0100000000000000000000000000000000000000000000000000000000900463ffffffff1680630d6a203314610072578063266cf109146100df5780637ea7118c14610136578063bd96bd201461018d578063cf09e0d0146101e4575b600080fd5b34801561007e57600080fd5b5061009d6004803603810190808035906020019092919050505061020f565b604051808273ffffffffffffffffffffffffffffffffffffffff1673ffffffffffffffffffffffffffffffffffffffff16815260200191505060405180910390f35b3480156100eb57600080fd5b506100f461024d565b604051808273ffffffffffffffffffffffffffffffffffffffff1673ffffffffffffffffffffffffffffffffffffffff16815260200191505060405180910390f35b34801561014257600080fd5b5061014b610273565b604051808273ffffffffffffffffffffffffffffffffffffffff1673ffffffffffffffffffffffffffffffffffffffff16815260200191505060405180910390f35b34801561019957600080fd5b506101a2610299565b604051808273ffffffffffffffffffffffffffffffffffffffff1673ffffffffffffffffffffffffffffffffffffffff16815260200191505060405180910390f35b3480156101f057600080fd5b506101f96102be565b6040518082815260200191505060405180910390f35b60048181548110151561021e57fe5b906000526020600020016000915054906101000a900473ffffffffffffffffffffffffffffffffffffffff1681565b600360009054906101000a900473ffffffffffffffffffffffffffffffffffffffff1681565b600160009054906101000a900473ffffffffffffffffffffffffffffffffffffffff1681565b6000809054906101000a900473ffffffffffffffffffffffffffffffffffffffff1681565b600254815600a165627a7a7230582049144790f08d011c39445ca1417c892ae0b5fda8c34ece9f40ea3e2e805800800029a165627a7a72305820afe2487f33825ff798d5070d1b9258d9fdc94dafd76633862dac1c39cf46fa390029",
  "source": "pragma solidity ^0.4.23;\r\n\r\nimport \"./Record.sol\";\r\nimport \"./KeystoreFactory.sol\";\r\n\r\ncontract RecordFactory {\r\n\r\n    KeystoreFactory KSFactory;\r\n\r\n    constructor(KeystoreFactory _KSFactory) public {\r\n        KSFactory = _KSFactory;\r\n    }\r\n\r\n    function create(\r\n        address _patient,\r\n        Keystore _patientKS,\r\n        Keystore _doctorKS,\r\n        string _patientKey,\r\n        string _doctorsKey,\r\n        EncryptedFile _record,\r\n        EncryptedFile[] _attachments\r\n    ) public returns (Record){\r\n        Record rec = new Record(_patient, _record, _attachments);\r\n        _patientKS.add(rec, _patientKey);\r\n        _doctorKS.add(rec, _doctorsKey);\r\n        return rec;\r\n    }\r\n\r\n    function createQuick(\r\n        address _patient,\r\n        Keystore _patientKS,\r\n        Keystore _doctorKS,\r\n        string _patientKey,\r\n        string _doctorsKey,\r\n        string _record_filePath,\r\n        string _record_dataHash,\r\n        string _record_hashMethod,\r\n        string _record_encriptionMethod,\r\n        EncryptedFile[] _attachments\r\n    ) public returns (Record){\r\n        EncryptedFile _record = new EncryptedFile(\r\n            _record_filePath,\r\n            _record_dataHash,\r\n            _record_hashMethod,\r\n            _record_encriptionMethod\r\n        );\r\n        \r\n        return create(_patient, _patientKS, _doctorKS, _patientKey, _doctorsKey, _record, _attachments);\r\n    }\r\n\r\n}\r\n",
  "sourcePath": "D:\\SourceCode\\MedX\\MedX.sol\\contracts\\RecordFactory.sol",
  "compiler": {
    "name": "solc",
    "version": "0.4.24+commit.e67f0147.Emscripten.clang"
  },
  "schemaVersion": "2.0.0",
  "updatedAt": "2018-06-07T18:10:18.185Z"
}